:020000040800F2
:1000000048040020010C0008C50E0008C70E0008B7
:10001000CB0E0008CF0E0008D30E00080000000031
:10002000000000000000000000000000D70E0008E3
:10003000D90E000800000000DB0E0008190C0008B3
:100040001B0C00088D0300081B0C00081B0C00088B
:100050001B0C00081B0C00081B0C00081B0C0008E4
:100060001B0C00081B0C00081B0C00081B0C0008D4
:100070001B0C00081B0C00081B0C00081B0C0008C4
:100080001B0C00081B0C00081B0C00081B0C0008B4
:100090001B0C00081B0C00081B0C00081B0C0008A4
:1000A0001B0C00081B0C00081B0C00081B0C000894
:1000B0001B0C00081B0C00081B0C00081B0C000884
:1000C0001B0C00081B0C00081B0C00081B0C000874
:1000D0001B0C00081B0C0008410900081B0C000841
:1000E0001B0C00081B0C00081B0C00081B0C000854
:1000F0001B0C00081B0C00081B0C00081B0C000844
:100100001B0C00081B0C00081B0C00081B0C000833
:100110001B0C00081B0C00081B0C00081B0C000823
:100120001B0C00081B0C00081B0C00081B0C000813
:10013000DFF80CD002F0ECFA004800474501000857
:100140004804002086B000F041FB00F0F0FA00F017
:10015000EBF800F075F84FF4E13000F0A1FB00F08F
:100160000DFD05A9422000F02AF904A9442000F061
:1001700026F9042203A9002000F019FB3BE06846A1
:1001800000F042FC002405E0C4F10C00C0B20DF800
:100190000400641C0C2CF7DB0C21684600F0B0FC5A
:1001A0001121244801F036FA642000F028FB1121C7
:1001B000204801F02FFA642000F021FB11211D4896
:1001C00001F028FA002408E0642000F018FB1DF874
:1001D0000410184801F01EFA641C0C2CF4DB0020FB
:1001E00015490860002404E00020144921F8140097
:1001F000641C052CF8DBC2E770B504460D46E1B27D
:100200000C4801F007FA00BF0A48008800F080009F
:100210000028F9D0204670BD00BF0648008800F0D5
:1002200020000028F9D00348001D0088C0F3080012
:100230007047000000440040040000203C00002003
:1002400000B585B00121042001F044F801214807E0
:1002500001F04DF81020ADF8100000208DF81300CB
:1002600003208DF8120004A92C4801F0FBFA10219C
:100270002A4801F0A4FB3C2000900020019002904D
:100280000390694601F047FC0121002001F060FC69
:100290000021084601F0BDFC05B000BD2DE9F05F6E
:1002A0008246504602F03AF980464FF066321C4BC7
:1002B00002F0B4F8064600221A4B02F03DF804465C
:1002C00002F039F91FFA80FB5946002001F0A1FC29
:1002D0000121002001F060FCBDE8F09F2DE9F05FF6
:1002E0008246504602F040F980464FF066320C4B91
:1002F00002F094F8064600220A4B02F01DF804466C
:1003000002F019F91FFA80FB5946002001F081FC28
:100310000121002001F040FCBDE8F09F00080140F1
:1003200066660A400000B0400EB54FF4C06000F0B1
:100330005BFD01208DF800008DF8010000208DF894
:10034000020001208DF80300684600F052FD0121F3
:10035000080700F0CCFFE02001F0A9FC012001F02B
:10036000A3FC00F0BBFD01A800F00DFE4FF48030AF
:10037000019000208DF8080008208DF80900012068
:100380008DF80A0001A800F0B7FD0EBD10B50420DD
:1003900001F0CAFC20B105480168002000F0EEF928
:1003A0004FF4803000F01FFE10BD00000800002058
:1003B000002000E0401CB0F5006FFBD370472DE932
:1003C000F04104460F4600260025A846FFF7F0FF3F
:1003D0004FF40050E84908604010091F0860FFF71B
:1003E000E7FF4FF48050E449086004F07F0400BF49
:1003F0001DE004F08000802804D10002DE49091FBE
:10040000086003E04FF40040DB490860FFF7D0FFCD
:100410004FF40050D849091F0860FFF7C9FF600674
:10042000040E4FF40050D4490860681CC5B2082D72
:10043000DFDB002520E07006060EFFF7B9FF4FF462
:100440000050CD49091F0860CB480C38006800F403
:100450008040B0F5804F02D14FF0010801E04FF02D
:10046000000806EB0800C6B2FFF7A2FF4FF40050E9
:10047000C1490860681CC5B2082DDCDB3E70FFF77F
:1004800097FF4FF48050BC49091F0860BDE8F08118
:100490002DE9F047044688469146002600250027AE
:1004A000AA46FFF785FF4FF40050B349086040109B
:1004B000091F0860FFF77CFF4FF48050AE490860C9
:1004C00004F07F0400BF1DE004F08000802804D108
:1004D0000002A949091F086003E04FF40040A64943
:1004E0000860FFF765FF4FF40050A349091F08603B
:1004F000FFF75EFF6006040E4FF400509E4908604F
:10050000681CC5B2082DDFDB00272CE04FF48050BB
:1005100099490860002520E07006060EFFF748FFA5
:100520004FF400509449091F086093480C38006844
:1005300000F48040B0F5804F02D14FF0010A01E095
:100540004FF0000A06EB0A00C6B2FFF731FF4FF486
:10055000005089490860681CC5B2082DDCDB08F82A
:100560000760781CC7B24F45D0DBFFF721FF4FF47F
:1005700080508149091F0860BDE8F0872DE9F047E8
:1005800004460F4690464FF0000900260025FFF76D
:100590000FFF4FF400507849086080000860C010D9
:1005A000091F0860FFF704FF4FF48050724908608C
:1005B00044F0800400BF1DE004F08000802804D1D6
:1005C00000026D49091F086003E04FF400406A49CA
:1005D0000860FFF7EDFE4FF400506749091F0860FF
:1005E000FFF7E6FE6006040E4FF400506249086013
:1005F000681CC5B2082DDFDB00262BE017F806903B
:1006000000251FE009F08000802804D100025A492B
:10061000091F086003E04FF4004057490860FFF7E6
:10062000C7FE4FF400505449091F0860FFF7C0FE91
:100630004FEA49604FEA10694FF400504E49086094
:10064000681CC5B2082DDDDB4FF00009FFF7B0FED6
:10065000701CC6B24645D1DB4FF480504649091F95
:100660000860C000091D0860FFF7A2FEBDE8F08722
:100670002DE9F04104460E4637460025FFF798FE67
:100680004FF400503C49086040100860FFF790FEAE
:1006900044F0800400BF1DE004F08000802804D1F5
:1006A00000023549091F086003E04FF40040324959
:1006B0000860FFF77DFE4FF400502F49091F0860C6
:1006C000FFF776FE6006040E4FF400502A490860DA
:1006D000681CC5B2082DDFDB00251DE007F0800097
:1006E000802804D100022449091F086003E04FF468
:1006F000004021490860FFF75BFE4FF400501E499F
:10070000091F0860FFF754FE7806070E4FF40050EB
:1007100019490860681CC5B2082DDFDBFFF748FEE9
:100720004FF480501449091F0860BDE8F08108B5F6
:100730000121082000F0CEFD4FF43040ADF800005C
:1007400003208DF8020010208DF8030069460A4846
:10075000143801F087F84FF480500749091F0860EA
:10076000FFF726FE4FF40050034908608000086040
:10077000FFF71EFE08BD0000140C014070B50446D2
:100780000D46042601F007FB352001F09FFD0E48C1
:1007900001F046FB0646042E06D10B4901EB44004E
:1007A000294601F00DFC064601F001FB70BD70B555
:1007B00004460D461646044800EB440132462846DE
:1007C00001F0A8FD304670BD00F8070810B56FF0C5
:1007D000040000F058FB2E4800682E49B0FBF1F0F1
:1007E0002D4908700846007800EB4001C1EBC010AD
:1007F0004FF6FF7101EAC0002849088010BD01468C
:10080000254A12784A434FF0E0235A6100229A6148
:100810001A46126942F001021A6100BF4FF0E0224D
:10082000106900F001021AB100F48032002AF5D0FC
:100830004FF0E022126922F001024FF0E0231A612A
:1008400000229A6170470146144A12884A434FF0C9
:10085000E0235A6100229A611A46126942F00102AD
:100860001A6100BF4FF0E022106900F001021AB1D6
:1008700000F48032002AF5D04FF0E022126922F015
:1008800001024FF0E0231A6100229A6170470000D4
:100890001400002000127A00000000200200002056
:1008A00010B586B004460121042000F013FD01219B
:1008B000480400F01CFD0820ADF8140004208DF859
:1008C000170005A9494800F0CDFF0420ADF8140039
:1008D00003208DF8160018208DF8170005A943484D
:1008E00000F0C0FF26208DF8100003208DF81100C5
:1008F00002208DF8120001208DF8130004A800F0EA
:1009000078FA4FF4E13000900020ADF80400ADF823
:100910000600ADF80800ADF80C000C20ADF80A0098
:100920006946334800F07DFD012240F225513048F0
:1009300000F00FFE01212E4800F0FFFD06B010BDB3
:100940002DE9FF4720212A4800F0D2FE01284AD194
:10095000274800F063FE27490A680968491C254BAF
:100960001960254921F812001846006805283AD177
:1009700000201946086020480078C0B91E48448805
:100980008588C688B0F808904FF07F4000EA046080
:100990004FF47F0101EA054108444FF47F4101EA29
:1009A0000621084409F0FF01084414490860124870
:1009B0000078012817D11049887801F09EFD0022A7
:1009C0000F4BCDE9000101F029FD07464FF06632DB
:1009D0000C4B01F0B1FCCDE9020101F0D8FD8246DB
:1009E0005046FFF77BFCBDE8FF8700000008014090
:1009F00000440040040000203C00002008000020CB
:100A00000000704066660A4010B50446812101204E
:100A1000FFF72EFEFF211F20FFF72AFE23210C20C7
:100A2000FFF726FE0F211120FFF722FEFF212420D1
:100A3000FFF71EFE00214020FFF71AFE00210F20C5
:100A4000FFF716FE85210120FFF712FE57E06949E6
:100A50001220FFF7B4FC67480078B8B96648007800
:100A600028B966480068401C6449086002E000201C
:100A7000624908605F4800785F4908705F48006815
:100A8000B0F5806F01DB002010BD38E059480078D8
:100A900000F08000802805D180211220FFF7E8FDBA
:100AA0000020F1E75348007800F04000402825D1AD
:100AB00040211220FFF7DCFD4E491B20FFF77FFC91
:100AC00000210D20FFF7D4FD00204A4908701320B3
:100AD000FFF775FC4748027821460020FFF7D8FC55
:100AE00081210120FFF7C4FD9F211120FFF7C0FDE8
:100AF000FF212420FFF7BCFD0120C5E700BFA6E7CA
:100B000070B504460D4681210120FFF7B1FD00219B
:100B10002420FFF7ADFDF7211120FFF7A9FD4021AB
:100B20000846FFF7A5FD29462220FFF7A1FD2A462A
:100B300021460020FFF722FD83210120FFF798FDC9
:100B40002C491220FFF73BFC2A48007800F00800EF
:100B5000082812D108211220FFF78AFD6420FFF730
:100B600072FE81210120FFF783FDF7211120FFF79D
:100B70007FFD81210120FFF77BFD70BD08B5FFF7E8
:100B8000D6FD69464220FFF71AFC00210120FFF73D
:100B90006FFD80210120FFF76BFD81210120FFF710
:100BA00067FD8F210920FFF763FD87214D20FFF7A7
:100BB0005FFD72211D20FFF75BFD74211E20FFF7F2
:100BC00057FD0C212620FFF753FD08210A20FFF7CF
:100BD0004FFD80210E20FFF74BFD80210D20FFF7F8
:100BE00047FD34213920FFF743FD00214120FFF765
:100BF0003FFD08BD0C0000200D000020100000206B
:100C00000648804706480047FEE7FEE7FEE7FEE7A6
:100C1000FEE7FEE7FEE7FEE7FEE7FEE7E70C00087B
:100C2000310100080EB50020029001900090654847
:100C3000006840F00100634908600846006800F061
:100C4000020010B10120019001E000200190019804
:100C5000012843D15C48006840F010005A49086000
:100C60000846006820F0030008600846006840F06D
:100C7000020008605348406852494860084640688E
:100C800048600846406840F4806048600846406814
:100C900020F47C1048600846406840F4E01048604A
:100CA0000846006840F08070086000BF4548006852
:100CB00000F000700028F9D04248406820F003009E
:100CC000404948600846406840F00200486000BF64
:100CD0003C48406800F00C000828F9D10EBD10B562
:100CE000FFF7A0FF10BD10B53648006840F00100C6
:100CF0003449086008464068344908403149486032
:100D000008460068324908402E49086008460068D5
:100D100020F4802008600846406820F4FE00486007
:100D20004FF41F008860FFF7DAFF4FF00060294999
:100D3000086010BD10B5002100200022214B5B6827
:100D400003F00C0121B1042906D0082928D107E0BD
:100D5000214B224C236027E01F4B204C236023E0D3
:100D6000184B5B6803F47010164B5B6803F4803219
:100D7000022303EB904022B9194B4343174C2360E5
:100D80000DE0104B5B6803F4003323B1144B434375
:100D9000124C236003E0104B4343104C236003E0EC
:100DA0000D4B0E4C236000BF00BF064B5B68C3F3C6
:100DB00003130C4CE15C094B1B68CB40074C2360D0
:100DC00010BD000000100240002002400000FFF8AB
:100DD000FFFFF6FE08ED00E000127A00140000208C
:100DE00000093D001800002031490143314A1160DB
:100DF000704770B5002100230F22C47804B32D4C36
:100E0000246804F4E064C4F5E064210AC1F1040339
:100E1000CA40447804FA03F184781440214309015C
:100E2000254C0678A155047804F01F050124AC4038
:100E300005786D11AD0005F1E025C5F8004109E028
:100E4000047804F01F050124AC401C4D067876118F
:100E500045F8264070BD1A4A0A400243154B1B1F35
:100E60001A60704739B1134A121D12680243114BC0
:100E70001B1D1A6006E00F4A121D126882430D4BBB
:100E80001B1D1A607047042808D14FF0E021096942
:100E900041F004014FF0E022116107E04FF0E02142
:100EA000096921F004014FF0E02211617047000050
:100EB0000000FA050CED00E000E400E080E100E055
:100EC00080FFFF1F704700BFFEE700BFFEE700BFC7
:100ED000FEE700BFFEE770477047704700204449B7
:100EE0000860091D0860091D0860091D0860414867
:100EF0003F4914310860704700213D498279002A3A
:100F00003AD00A46126803689A430B461A600A1DD3
:100F1000126803689A430B1D1A60027911440A682B
:100F200003681A430A60324A0832126803689A4317
:100F30002F4B08331A601A1D126803689A432C4B12
:100F40000C331A604279102A0ED11A1F12680368F6
:100F50001A43274B08331A601A1D126803681A4394
:100F6000234B0C331A600DE02149427911440A6881
:100F700003681A430A6005E0027911440A680368AD
:100F80009A430A6070470021016001710C21417190
:100F90000021817170471649103109680143144AD4
:100FA00010321160704701460020114A1432126855
:100FB0000A400AB1012000E0002070470C491431BA
:100FC00008607047014600200022094B1B6803EAB5
:100FD0000102074B14331B680B4013B10AB1012007
:100FE00000E000207047024914310860704700009B
:100FF00000040140FFFF0F00DF48006840F00100DF
:10100000DD49086008464068DC490840DA49486024
:1010100008460068DA490840D74908600846006871
:1010200020F4802008600846406820F4FE004860F4
:101030004FF41F0088607047CF49096821F4803160
:10104000CD4A11601146096821F480211160B0F584
:10105000803F03D0B0F5802F0ED106E0C649096865
:1010600041F48031C44A116007E0C349096841F482
:10107000A021C14A116000E000BF00BF704710B559
:1010800001460022002300204A11012A02D1BA4C55
:10109000236806E0022A02D1B74C236A01E0B64C6D
:1010A000636A01F01F02012494401C400CB101202E
:1010B00000E0002010BD38B500200090002400257D
:1010C00000BF3120FFF7DBFF05460098401C009071
:1010D0000098B0F5A06F01D0002DF2D03120FFF7BD
:1010E000CEFF08B1012400E00024204638BD0146AF
:1010F0000020A14A106820F0F80040EAC10010600A
:101100007047A04908607047024600209A4B586813
:1011100020F47C1042EA01031843974B5860704753
:1011200098490866704701460020934A506820F0AD
:1011300003000843506070478F48406800F00C007F
:101140007047014600208C4A506820F0F0000843A8
:101150005060704701460020874A506820F4E060E4
:1011600008435060704701460020834A506820F4CD
:10117000605040EAC1005060704729B17E4A527AFF
:1011800002437D4B5A7204E07B4A527A82437A4B87
:101190005A7270477B49D831086070470146002079
:1011A000754A506820F44040084350607047002161
:1011B000714A20321170704A82F82010012802D042
:1011C00004280AD104E001216B4A2032117005E0A5
:1011D0000521694A2032117000E000BF00BF70474E
:1011E0006949086070476449096A0143624A1162AB
:1011F0007047654944390860704730B500210022C6
:10120000002400235C4D6D6805F00C0121B1042918
:1012100005D0082923D105E05C4D056022E05B4D37
:1012200005601FE0544D6D6805F47012524D6D68F5
:1012300005F48034022505EB92421CB9544D554308
:1012400005600BE04C4D6D6805F400351DB1504D47
:101250005543056002E04D4D5543056002E04B4D9E
:10126000056000BF00BF444D6D6805F0F00109093D
:10127000484D6B5C0568DD4045603F4D6D6805F489
:10128000E061090A434D6B5C4568DD4085603A4D7D
:101290006D6805F46051C90A3E4D6B5C4568DD40E0
:1012A000C560354D6D6805F44041890B3A4D6B5C66
:1012B000C568B5FBF3F5056130BD29B12E4A526909
:1012C00002432D4B5A6104E02B4A526982432A4B58
:1012D0005A61704729B1284A92690243264B9A61A4
:1012E00004E0254A92698243234B9A61704729B1F1
:1012F000214AD2690243204BDA6104E01E4AD269D6
:1013000082431D4BDA61704729B11B4AD268024300
:10131000194BDA6004E0184AD2688243164BDA604F
:10132000704729B1144A12690243134B1A6104E051
:10133000114A12698243104B1A61704712494039B1
:10134000086070470F49C86470470B49C8717047FF
:101350000948406A40F0807007494862704701467A
:101360000020054A92680A400AB1012000E00020EE
:101370007047014988727047001002400000FFF872
:10138000FFFFF6FE000042428004424200127A0053
:1013900000093D00280000203800002010B5044658
:1013A000FB48844209D101218803FFF7ADFF0021EA
:1013B0004FF48040FFF7A8FF32E0F648844209D19D
:1013C00001214804FFF7ADFF00214FF40030FFF783
:1013D000A8FF25E0F048844209D101218804FFF7E5
:1013E000A0FF00214FF48020FFF79BFF18E0EB489F
:1013F000844209D10121C804FFF793FF00214FF473
:101400000020FFF78EFF0BE0E548844208D1012160
:101410000805FFF786FF00214FF48010FFF781FFDA
:1014200010BD2DE9F04786B005460E460024A246C1
:1014300000BFA1460027B08900B100BF2F462C8A0B
:101440004CF6FF700440F08804432C82AC894EF6C1
:10145000F3100440B088318908437189084304437C
:10146000AC81AC8A4FF6FF400440B0890443AC82A3
:1014700001A8FFF7C2FEC648874202D1DDF810A0DE
:1014800001E0DDF80CA0A88900F4004040B10AEBAF
:10149000CA0000EB0A1031684900B0FBF1F807E020
:1014A0000AEBCA0000EB0A1031688900B0FBF1F8C2
:1014B0006420B8FBF0F004012009642101FB1089CD
:1014C000A88900F4004040B1322000EBC900B0FB15
:1014D000F1F000F00700044308E0322000EB0910AF
:1014E0006421B0FBF1F000F00F0004432C8106B042
:1014F000BDE8F0874FF41651016000218180C18062
:1015000001810C21418100218181704710B5024683
:101510000020108A4FF2FF0318400B884C882343A9
:101520008C882343CC8823431843108210BD0021AC
:10153000018041808180C180704721B1828942F45D
:101540000052828104E082894DF6FF731A40828145
:101550007047F0B50346002400260025002040F621
:101560006A17B94200D100BF1846C1F3421401F016
:101570001F06012707FA06F5012C01D10C3004E003
:10158000022C01D1103000E014301AB107682F434B
:10159000076002E00768AF430760F0BD1AB1838AB5
:1015A0000B43838202E0838A8B4383827047028AE3
:1015B0004FF6F0731A400282028A0A430282704791
:1015C00082894FF2FF731A40828182890A438281A5
:1015D000704721B1828942F00202828104E082894F
:1015E0004FF6FD731A4082817047028A4FF6DF730F
:1015F0001A400282028A0A430282704721B1028A9B
:1016000042F48042028204E0028A4BF6FF731A40E1
:1016100002827047C1F308028280704701468888C1
:10162000C0F308007047818941F001018181704752
:10163000028BD2B20283028B42EA012202837047FC
:10164000028B02F47F420283028B0A4302837047BB
:1016500021B1828A42F02002828204E0828A4FF61F
:10166000DF731A408282704721B1828A42F01002F1
:10167000828204E0828A4FF6EF731A4082827047BA
:1016800021B1828A42F00802828204E0828A4FF607
:10169000F7731A408282704721B1828942F4004276
:1016A000828103E08289C2F30E028281704721B1F8
:1016B000828A42F40062828204E0828A4FF2FF73DF
:1016C0001A4082827047828A4FF6FB731A408282E8
:1016D000828A0A438282704721B1828A42F00202E2
:1016E000828204E0828A4FF6FD731A40828270473C
:1016F00002460020B1F5007F00D100BF13880B40E7
:101700000BB1012000E00020704701F40072B2F537
:10171000007F00D100BFCA430280704770B5024607
:10172000002400230025002040F66A16B14200D1B3
:1017300000BFC1F3421501F01F03012606FA03F3AF
:10174000012D02D19689334006E0022D02D1168A7E
:10175000334001E0968A33400C12012606FA04F465
:101760001688344013B10CB1012000E0002070BD98
:1017700010B50022002340F66A14A14200D100BF38
:101780000A1201249440A3B2DC43048010BD00007F
:10179000003801400044004000480040004C004038
:1017A0000050004010B50446CC48844208D10121C5
:1017B0000420FFF7A9FD00210420FFF7A5FD46E066
:1017C000C748844208D101210820FFF79DFD002170
:1017D0000820FFF799FD3AE0C248844208D1012170
:1017E0001020FFF791FD00211020FFF78DFD2EE066
:1017F000BD48844208D101212020FFF785FD00214A
:101800002020FFF781FD22E0B848844208D1012161
:101810004020FFF779FD00214020FFF775FD16E01D
:10182000B348844208D101218020FFF76DFD0021DB
:101830008020FFF769FD0AE0AE48844207D101210C
:101840008015FFF761FD0021A015FFF75DFD10BDBC
:1018500010B501210846FFF757FD00210120FFF7D1
:1018600053FD10BD2DE9F041024600250026002061
:1018700000230024002791F803C00CF00F0591F815
:1018800003C00CF0100CBCF1000F03D091F802C0A3
:101890004CEA050591F800C0BCF1000F31D0146886
:1018A00000202BE04FF0010C0CFA00F3B1F800C05F
:1018B0000CEA03069E4220D183004FF00F0C0CFA75
:1018C00003F7BC4305FA03FC4CEA040491F803C097
:1018D000BCF1280F06D14FF0010C0CFA00FCC2F845
:1018E00014C00AE091F803C0BCF1480F05D14FF0D5
:1018F000010C0CFA00FCC2F810C0401C0828D1D31F
:101900001460B1F800C0BCF1FF0F34DD5468002052
:101910002EE000F1080C4FF0010808FA0CF3B1F8C2
:1019200000C00CEA03069E4221D183004FF00F0C49
:101930000CFA03F7BC4305FA03FC4CEA040491F8E3
:1019400003C0BCF1280F05D100F1080C08FA0CF80F
:10195000C2F8148091F803C0BCF1480F07D100F120
:10196000080C4FF0010808FA0CF8C2F81080401C6F
:101970000828CED35460BDE8F0814FF6FF71018096
:10198000022181700421C1707047024600209368D3
:101990000B400BB1012000E0002070470146886831
:1019A00080B2704702460020D3680B400BB1012083
:1019B00000E0002070470146C86880B270470161AE
:1019C0007047416170470AB1016100E041617047B1
:1019D000C16070474FF480320A4382618161826145
:1019E00082698269704702460020434B18684FF6AF
:1019F0008073184040EA021008433F4B186070475C
:101A00003E49C8617047F0B50A4600230024002112
:101A1000002500F00046B6F1004F02D1364EF169C4
:101A200001E0354E7168C0F3034583B200F44016FF
:101A3000B6F5401F08D121F070612F4E766826F070
:101A400070662D4F7E6012E000F48016B6F5801FA0
:101A500006D1032606FA05F4A14341F0706106E0C1
:101A6000460D360103FA06F6B14341F0706122B12A
:101A7000460D360103FA06F6314300F00046B6F192
:101A8000004F02D11C4EF16101E01B4E7160F0BDB0
:101A900030B500228B071C0F0F2303FA04F2164BFC
:101AA00008338C1053F824309343134C08348D10B2
:101AB00044F8253023468C1053F824308C07240F2B
:101AC00000FA04F423430C4C08348D1044F82530FC
:101AD00030BD0A49DC310860704700000008014051
:101AE000000C0140001001400014014000180140AA
:101AF000001C014000200140000001400000204285
:101B000010B501214807FFF70CFC00214FF00050F1
:101B1000FFF707FC10BD30B5002200235A4C2268A5
:101B200040F6FE748440A243D1E900452C438D6801
:101B30002C43CD6844EA050303FA00F42243524CD7
:101B4000226030BD0021016041608160C16070474A
:101B500039B14D4A1268012383401A434A4B1A6037
:101B600006E0494A1268012383409A43464B1A60B3
:101B7000704741B1444A12684FF4805383401A437E
:101B8000414B1A6007E0404A12684FF4805383408B
:101B90009A433D4B1A60704710B551B13A4A121D35
:101BA000126804090123A3401A43374B1B1D1A6016
:101BB00009E0354A121D126804090123A3409A4323
:101BC000314B1B1D1A6010BD40B12F49091D09681A
:101BD00041F003012C4A121D116007E02A49091D3A
:101BE000096821F00301284A121D1160704710B5E1
:101BF0003AB1254B1B6801FA00F42343224C2360C1
:101C000006E0214B1B6801FA00F4A3431E4C23603D
:101C100010BD08B5002200921B4A009200F1080294
:101C2000009B1A440092009A116008BD08B500227A
:101C30000092154A009200F11402009B1A4400928F
:101C4000009A116008BD30B500240023082802D195
:101C500042EA012401E042EA01440B4B00F1200575
:101C60002B441C6030BD08B501460020009006489A
:101C700000902C2000EB9100009A104400900098F6
:101C8000006880B208BD00000074004010B501215A
:101C90000807FFF746FB00214FF08050FFF741FB9C
:101CA00010BD2A49086270472849086170470146FB
:101CB0000020274A106820F0E000084310607047B9
:101CC0002249A0310860704710B502460020204B21
:101CD000186820F00300104318601E4B1B6843F087
:101CE00004031C4C2360012901D130BF00E020BF58
:101CF000184B1B6823F00403164C236010BD1448D6
:101D0000006840F00400124908600846006840F08E
:101D1000020008600F48006840F004000D490860A8
:101D200000BF00BF30BF704701460020084A52681C
:101D30000A400AB1012000E0002070470449096808
:101D400041EA8001024A11607047000000000E4223
:101D50000070004010ED00E001460020FE4A1068CF
:101D600000F03800084310607047FB49096821F013
:101D70000801F94A11601146096801431160704772
:101D8000F549096821F01001F34A1160114609680C
:101D9000014311607047F148EF494860F0484860DE
:101DA0007047EE48EC494860ED4848607047EA48A3
:101DB000006940F08000E84908617047E648006922
:101DC00040F08000E449086170470420E249C96896
:101DD00001F0010109B101200EE0DF49C96801F0FD
:101DE000040109B1022007E0DB49C96801F01001D4
:101DF00009B1032000E00420704700B50246042327
:101E0000FFF7E3FF034603E0FFF7DFFF0346521E41
:101E1000012B01D1002AF7D102B90523184600BDD4
:101E200030B5044604254FF43020FFF7E6FF0546A1
:101E3000042D17D1C848006940F00200C649086166
:101E400008464461006940F0400008614FF43020CA
:101E5000FFF7D3FF0546C048006941F6FD71084011
:101E6000BD490861284630BD10B504244FF4302028
:101E7000FFF7C3FF0446042C16D1B748006940F0B1
:101E80000400B54908610846006940F04000086157
:101E90004FF43020FFF7B1FF0446AF48006941F628
:101EA000FB710840AC490861204610BD00B50246F0
:101EB0000423FFF78AFF034603E0FFF786FF03468C
:101EC000521E012B01D1002AF7D102B90523184671
:101ED00000BD10B504244FF43020FFF7E7FF04469F
:101EE000042C16D19C48006940F004009A4908610E
:101EF0000846006940F0400008614FF43020FFF7C9
:101F0000D5FF04469448006941F6FB7108409249A8
:101F10000861204610BD00208F49C96901F0020107
:101F200009B1012000E00020704730B5A525042448
:101F3000FFF7F1FF00B100254FF43020FFF75DFF00
:101F40000446042C3AD185488349886084488860D7
:101F50000846006940F0200008610846006940F02A
:101F6000400008614FF43020FFF747FF0446042C7F
:101F70001BD17948006941F6DF7108407649086154
:101F80000846006940F01000086176480580E002CC
:101F9000FFF733FF0446052C10D06F48006941F667
:101FA000EF7108406C49086108E0052C06D06A48CA
:101FB000006941F6EF71084067490861204630BD6D
:101FC00078B506460C46042500200090E802FFF78D
:101FD00014FF0546042D24D15F48006940F001003C
:101FE0005D4908613480E802FFF707FF0546042DCC
:101FF00010D1B01C0090200C00990880E802FFF777
:10200000FCFE05465448006941F6FE7108405249FD
:10201000086106E05048006941F6FE7108404E49EB
:102020000861284678BD70B504460D460426F002C6
:10203000FFF7E3FE0646042E11D14748006940F041
:102040000100454908612580F002FFF7D6FE0646EB
:102050004148006941F6FE7108403F490861304639
:1020600070BD70B505460E460424E002FFF7C5FEBC
:102070000446042C17D139483749886038488860AD
:102080000846006940F0100008612E80E002FFF76A
:10209000B4FE0446052C06D02F48006941F6EF71C6
:1020A00008402D490861204670BD2DE9F0430446E3
:1020B0004FF6FF763746B046B1460425E443E6B214
:1020C000C4F30727C4F307484FEA1469E802FFF78F
:1020D00094FE0546042D49D120481F4988602048B8
:1020E00088600846006940F010000861FF2E06D0A5
:1020F0001C4808300680E802FFF77FFE0546042DE5
:1021000008D1FF2F06D017480A300780E802FFF7F2
:1021100074FE0546042D0AD1B8F1FF0F07D011480F
:102120000C30A0F80080E802FFF767FE0546042D9A
:102130000AD1B9F1FF0F07D00A480E30A0F800907D
:10214000E802FFF75AFE0546052D0FD00248006948
:1021500041F6EF71084007E0002002402301674587
:10216000AB89EFCD00F8FF1F664908612846BDE83E
:10217000F08330B5054604244FF43020FFF73DFED0
:102180000446042C41D160485E4988605F488860FD
:102190000846006940F0200008610846006940F0E8
:1021A000400008614FF43020FFF727FE0446042C5E
:1021B00022D15448006941F6DF7108405149086155
:1021C0000846006940F0100008611DB10020504928
:1021D000088002E0A5204E4908804FF43020FFF728
:1021E0000CFE0446052C10D04648006941F6EF71FC
:1021F00008404449086108E0052C06D041480069C0
:1022000041F6DF7108403F490861204630BDF0B516
:1022100005460E46174604243B483A4988603B4829
:102220008860E002FFF7E9FD0446042C19D1354827
:10223000006940F010003349086147F0F80030436E
:1022400028433349891C0880E002FFF7D6FD044685
:10225000052C06D02B48006941F6EF71084029494A
:1022600008612046F0BD2748C069800870472548AE
:10227000006A704700202349096801F0200109B174
:10228000012000E00020704729B11E4A1269024374
:102290001C4B1A6104E01B4A12698243194B1A61F4
:1022A000704701460020012908D1164AD26902F080
:1022B00001020AB1012008E0002006E0114AD268BC
:1022C0000A400AB1012000E0002070470D49C860B3
:1022D000704704200B49C96801F0010109B10120D0
:1022E0000EE00849C96801F0040109B1022007E0C5
:1022F0000449C96801F0100109B1032000E004207D
:10230000704700000020024023016745AB89EFCDF4
:1023100000F8FF1F40EA01039B0703D009E008C94A
:10232000121F08C0042AFAD203E011F8013B00F89A
:10233000013B521EF9D270472DE9FE4F81EA03049A
:1023400004F0004421F0004100944FF0000B23F012
:10235000004350EA01045ED052EA03045BD0C3F3A9
:102360000A54C1F30A552C44A4F2F3340194A0FB9F
:102370000254C1F3130141F48011C3F3130343F476
:10238000801301FB024400FB034E840A970A44EACF
:10239000815447EA8357A4FB076802958D0A05FB21
:1023A00007854FEA932C04FB0C542705029D4FEA46
:1023B000065847EA1637B5EB08056EEB070C870E93
:1023C000920E47EA811742EA8312A7FB0201B6EB9D
:1023D0000B0164EB00042B0D43EA0C335E1844EB55
:1023E0001C50DA465146E7FB0201C5F313044FEADD
:1023F0000B3343EA14534FEA0432019C43EA0603C9
:10240000A4F10C040294009CCDE900B400F031F971
:1024100003B0BDE8F08F00200146F9E72DE9F04D4B
:1024200081EA030404F0004B21F0004514464FF00C
:10243000000A23F0004150EA050220D054EA0102CC
:102440001DD0C5F30A570246C5F31303C1F31300A9
:10245000C1F30A5640F4801543F48013A7EB060835
:10246000101BD64608F2FD3873EB050002D308F1C5
:10247000010801E092185B41B8F1000F03DA002077
:102480000146BDE8F08D00204FF4801106468446D9
:102490000EE0171B73EB050705D3121B63EB050357
:1024A00006434CEA010C49084FEA300092185B41A0
:1024B00050EA0107EDD152EA030012D082EA04008B
:1024C00083EA0501084305D0101BAB4106D2012267
:1024D000002306E000224FF0004302E06FF001020B
:1024E00053101AEB06004CEB085110EB0A0041EBBD
:1024F0000B01BDE8F04D00F0ADB80EB5C10F80EA9C
:10250000E0700844CA07002140F233438DE80E0012
:102510000A460B4600F0ADF803B000BD0EB540F220
:10252000334102910021CDE900110A460B4600F02B
:10253000A0F803B000BDC1F30A5210B5C1F31301F6
:1025400040F2FF3341F480119A4201DA002010BDBD
:1025500040F233439A42A2F2334203DC524200F08B
:1025600032F810BD904010BD00F0004230F0004045
:102570000AD0C10D01F56071C0F3160042EA0151A5
:10258000C20840071143704700200146704701F020
:10259000004330B421F0004150EA010206D00A0D98
:1025A000A2F56072C1F31301002A02DC30BC0020E6
:1025B0007047440F44EAC104C100E01830BC00EB8E
:1025C000C25000F010B8202A04DB203A21FA02F0B1
:1025D0000021704721FA02F3D040C2F1200291405D
:1025E0000843194670470029A8BF7047401C49009E
:1025F00008BF20F00100704710B4B0FA80FC00FA68
:102600000CF050EA010404BF10BC704749B1CCF192
:10261000200421FA04F411FA0CF118BF012121431E
:102620000843A3EB0C01CB1D4FEA00614FEA1020D9
:1026300042BF002010BC704700EBC350104400297B
:10264000A4BF10BC7047401C490008BF20F0010027
:1026500010BC704710B5141E73F1000408DA401C5A
:1026600041F1000192185B411A4301D120F00100B1
:1026700010BD2DE9F04D92469B4611B1B1FA81F2A1
:1026800002E0B0FA80F22032904600F053F804469F
:102690000F4640EA0A0041EA0B0153465A460843F6
:1026A00013D0114653EA010019D0C8F14002504638
:1026B000FFF789FF05460E4650465946424600F050
:1026C00039F8084305D0012004E020463946BDE82A
:1026D000F08D0020054346EAE0762C4337430A9804
:1026E0006305E40AA0EB08000022FD0A44EA47540F
:1026F0000A3002D500200146E9E7010510196941B9
:10270000DDE9084500196941BDE8F04DA2E7000088
:10271000064C074D06E0E06840F0010394E807002E
:1027200098471034AC42F6D3FDF706FD7027000839
:1027300090270008202A04DB203A00FA02F100204A
:1027400070479140C2F1200320FA03F319439040EF
:10275000704702E008C8121F08C1002AFAD170476A
:102760007047002001E001C1121F002AFBD1704711
:1027700090270008000000203C00000052270008BD
:10278000CC2700083C0000200C0400006227000851
:102790000000000000000000000000000000000039
:1027A0000000000000A24A04000000000000000039
:1027B00001020304060708090000000001020304E7
:0C27C000010203040607080902040608D1
:0400000508000131BD
:00000001FF
